:020000040000fa
:080000000001040000000000f3
:020000040000fa
:04000800dc01000017
:020000040000fa
:04000c00dc01000013
:020000040000fa
:04001000dc0100000f
:020000040000fa
:04001400dc0100000b
:020000040000fa
:04001800dc01000007
:020000040000fa
:04001c00dc01000003
:020000040000fa
:04002000dc010000ff
:020000040000fa
:04002400dc010000fb
:020000040000fa
:0400280028030000a9
:020000040000fa
:04002c00dc010000f3
:020000040000fa
:04003000dc010000ef
:020000040000fa
:04003400c8010000ff
:020000040000fa
:04003800dc010000e7
:020000040000fa
:04003c00dc010000e3
:020000040000fa
:04004000dc010000df
:020000040000fa
:04004400dc010000db
:020000040000fa
:04004800dc010000d7
:020000040000fa
:04004c00dc010000d3
:020000040000fa
:04005000dc010000cf
:020000040000fa
:04005400dc010000cb
:020000040000fa
:04005800dc010000c7
:020000040000fa
:04005c00dc010000c3
:020000040000fa
:04006000dc010000bf
:020000040000fa
:04006400dc010000bb
:020000040000fa
:04006800dc010000b7
:020000040000fa
:04006c00dc010000b3
:020000040000fa
:04007000dc010000af
:020000040000fa
:04007400dc010000ab
:020000040000fa
:04007800dc010000a7
:020000040000fa
:04007c00dc010000a3
:020000040000fa
:04008000dc0100009f
:020000040000fa
:04008400dc0100009b
:020000040000fa
:04008800dc01000097
:020000040000fa
:04008c00dc01000093
:020000040000fa
:04009000dc0100008f
:020000040000fa
:04009400dc0100008b
:020000040000fa
:04009800dc01000087
:020000040000fa
:04009c00dc01000083
:020000040000fa
:0400a000dc0100007f
:020000040000fa
:0400a400dc0100007b
:020000040000fa
:0400a800dc01000077
:020000040000fa
:0400ac00dc01000073
:020000040000fa
:0400b000dc0100006f
:020000040000fa
:0400b400dc0100006b
:020000040000fa
:0400b800dc01000067
:020000040000fa
:0400bc00dc01000063
:020000040000fa
:0400c000dc0100005f
:020000040000fa
:0400c400dc0100005b
:020000040000fa
:0400c800dc01000057
:020000040000fa
:0400cc00dc01000053
:020000040000fa
:0400d000dc0100004f
:020000040000fa
:0400d400dc0100004b
:020000040000fa
:0400d800dc01000047
:020000040000fa
:04010800dc01000016
:020000040000fa
:04010c00dc01000012
:020000040000fa
:04011000dc0100000e
:020000040000fa
:04011400dc0100000a
:020000040000fa
:04011800dc01000006
:020000040000fa
:04011c00dc01000002
:020000040000fa
:04012000dc010000fe
:020000040000fa
:04012400dc010000fa
:020000040000fa
:04012800dc010000f6
:020000040000fa
:04012c00dc010000f2
:020000040000fa
:04013000dc010000ee
:020000040000fa
:04013400dc010000ea
:020000040000fa
:04013800dc010000e6
:020000040000fa
:04013c00dc010000e2
:020000040000fa
:04014000dc010000de
:020000040000fa
:04014400dc010000da
:020000040000fa
:04014800dc010000d6
:020000040000fa
:04014c00dc010000d2
:020000040000fa
:04015000dc010000ce
:020000040000fa
:04015400dc010000ca
:020000040000fa
:04015800dc010000c6
:020000040000fa
:04015c00dc010000c2
:020000040000fa
:04016000dc010000be
:020000040000fa
:04016400dc010000ba
:020000040000fa
:04016800dc010000b6
:020000040000fa
:04016c00dc010000b2
:020000040000fa
:04017000dc010000ae
:020000040000fa
:04017400dc010000aa
:020000040000fa
:04017800dc010000a6
:020000040000fa
:04017c00dc010000a2
:020000040000fa
:04018000dc0100009e
:020000040000fa
:04018400dc0100009a
:020000040000fa
:04018800dc01000096
:020000040000fa
:04018c00dc01000092
:020000040000fa
:04019000dc0100008e
:020000040000fa
:04019400dc0100008a
:020000040000fa
:04019800dc01000086
:020000040000fa
:04019c00dc01000082
:020000040000fa
:0401a000dc0100007e
:020000040000fa
:0401a400dc0100007a
:020000040000fa
:0401a800dc01000076
:020000040000fa
:0401ac00dc01000072
:020000040000fa
:0401b000dc0100006e
:020000040000fa
:0401b400dc0100006a
:020000040000fa
:0401b800dc01000066
:020000040000fa
:0401bc00dc01000062
:020000040000fa
:0401c000dc0100005e
:020000040000fa
:0401c400dc0100005a
:020000040000fa
:0401c800dc01000056
:020000040000fa
:0401cc00dc01000052
:020000040000fa
:0401d000dc0100004e
:020000040000fa
:0401d400dc0100004a
:020000040000fa
:0401d800dc01000046
:020000040000fa
:100200006f8820000ef720000e018800000000001b
:10021000000020000000e000020032000001200089
:100220002002880014000700650007000000e000bd
:1002300003003a00a0372000010020000200370030
:100240000000200001002000810f7000010032003a
:1002500014000700000020000000e000020032004f
:100260000000020000000000bc02020000000000cc
:100270000040da000000fe004440a9008000200099
:100280000000e0000300320000002000a001880010
:100290004440a800000006008a1f78008b1f7800e9
:1002a0000000060091018800800478000000eb0047
:1002b0001a003700e284440032a0b4009905ba0065
:1002c000e284440032a0b4009906ba00e2844400fb
:1002d00032a0b4000006eb00476fde00fd07b2005d
:1002e000636ce10003003a00ebff07000000eb0045
:1002f0000a003700606ce10004003a00005deb008a
:100300008b05e900fdff3e00040037006168e10055
:10031000010032000086eb000b00070019c7ba008d
:100320001905ba000e04e00003003a000a00e000dc
:10033000e0ff3a0000000600fe07b2009e018800c0
:100340008a047800f5ff3700395dba008b05e900b3
:100350000c003200295dba008b05e900080032006c
:100360000c00e00003003a00e284440032a0b40034
:10037000f5ff370019ddba008b05e900faff3a00f6
:100380008904e800e184440032a0b40000000600c3
:100390003400f800881f780008002000a8018800b9
:1003a0004f0478000000fa008460a9000080fa0081
:1003b0003400f900004006000040da000000fe00b2
:0403c0000000050034
:020000040000fa
:1003c400436f00006e740000656f00003a00000087
:020000040000fa
:1003d400e042a80000000000e062a9000000000064
:1003e400d442a80000000000c8e2b70000000000ea
:1003f400d442a9000000000000000600811f78001c
:100404006c03020000000000b04078000104e0002a
:1004140007003200801f780001007800ea01020022
:10042400000000004f0078000202040000000000f9
:10043400cf00780000000600e042a90000000000a0
:10044400e062a90000000000d442a80000000000ff
:10045400c8e2b70000000000d442a9000000000078
:1004640000000600811f7800821f7800e042a90086
:1004740000000000f10f2000311688000000000089
:10048400e062a80000000000d442a80000000000c0
:10049400c8e2af004a0204000000000000000000af
:1004a400d442a90000000000e062a900000000009e
:1004b40001f02f003216800081006100311688009f
:1004c400000000004f017800cf0078000000060013
:1004d4006c03020000000000000320001e02020062
:1004e400000000006c030200000000000003200074
:1004f4001e020200000000006c0302000000000065
:10050400000320001e02020000000000340202006a
:1005140000000000800320001e0202000000000012
:100524003402020000000000800020001e020200cd
:10053400000000003402020000000000100020004f
:100544001e0202000000000034020200000000004d
:10055400600020001e020200000000006c03020084
:1005640000000000f00020001e0202000000000055
:10057400000006000000fa008268ef008368ef00c4
:100584008468ef008568ef001f000700180007006b
:10059400cfff0700201e280098ff07004d0007002a
:1005a40070c8b300a4ff07004a00070085c8bf0055
:1005b4000043b00086ff07004600070084c8bf0060
:1005c4000043b00082ff07004200070083c8bf0059
:1005d4000043b0007eff07003e00070082c8bf0052
:1005e4000043b0007aff070000000000ebff370073
:1005f4000000fa008400a9008200a8008c00a80072
:100604000080fa00000006000000fa00c822ef0093
:10061400ca22ef00c622ef00100020004015880017
:10062400e022ef00e222ef00de22ef00d422ef000e
:10063400d622ef00d222ef00c362a900c562a9004e
:10064400c162a8000080fa0000000600801f780044
:10065400811f7800a00020008268ec008248e3003b
:100664000d003a008268ef008368ec008348e300e1
:1006740009003a008368ef008468ec008448e300d2
:1006840005003a008468ef008568ec008548e300c3
:1006940001003a008568ef008400a9004f0078004b
:1006a400cf00780000400600801f7800811f78008a
:1006b400a10020000000eb000000e900feff3a006a
:1006c4008100e900fbff3a00cf0078004f0078007a
:1006d40000000600801f780090be26000000e9009c
:1006e400feff3a004f0078000000060000000600fc
:020000040000fa
:1006f400000800008000000000000000800f0000df
:1007040080000000000000008008000006000000d7
:080714000000000000000000dd
:020000040000fa
:04071c0000000000d9
:020000040000fa
:0200000401f009
:04000000e0b9000063
:020000040000fa
:0200000401f009
:04000400ff7f00007a
:020000040000fa
:0200000401f009
:04000800feff0000f7
:020000040000fa
:0200000401f009
:04001400ffff0000ea
:00000001FF
